{
  "_format": "hh-sol-artifact-1",
  "contractName": "Transactions",
  "sourceName": "contracts/Transactions.sol",
  "abi": [
    {
      "anonymous": false,
      "inputs": [
        {
          "indexed": true,
          "internalType": "address",
          "name": "from",
          "type": "address"
        },
        {
          "indexed": true,
          "internalType": "address",
          "name": "receiver",
          "type": "address"
        },
        {
          "indexed": false,
          "internalType": "uint256",
          "name": "amount",
          "type": "uint256"
        },
        {
          "indexed": false,
          "internalType": "string",
          "name": "message",
          "type": "string"
        },
        {
          "indexed": false,
          "internalType": "uint256",
          "name": "timestamp",
          "type": "uint256"
        },
        {
          "indexed": false,
          "internalType": "string",
          "name": "keyword",
          "type": "string"
        }
      ],
      "name": "Transfer",
      "type": "event"
    },
    {
      "inputs": [
        {
          "internalType": "address payable",
          "name": "receiver",
          "type": "address"
        },
        {
          "internalType": "uint256",
          "name": "amount",
          "type": "uint256"
        },
        {
          "internalType": "string",
          "name": "message",
          "type": "string"
        },
        {
          "internalType": "string",
          "name": "keyword",
          "type": "string"
        }
      ],
      "name": "addToBlockchain",
      "outputs": [],
      "stateMutability": "nonpayable",
      "type": "function"
    },
    {
      "inputs": [],
      "name": "getAllTransactions",
      "outputs": [
        {
          "components": [
            {
              "internalType": "address",
              "name": "sender",
              "type": "address"
            },
            {
              "internalType": "address",
              "name": "receiver",
              "type": "address"
            },
            {
              "internalType": "uint256",
              "name": "amount",
              "type": "uint256"
            },
            {
              "internalType": "string",
              "name": "message",
              "type": "string"
            },
            {
              "internalType": "uint256",
              "name": "timestamp",
              "type": "uint256"
            },
            {
              "internalType": "string",
              "name": "keyword",
              "type": "string"
            }
          ],
          "internalType": "struct Transactions.TransferStruct[]",
          "name": "",
          "type": "tuple[]"
        }
      ],
      "stateMutability": "view",
      "type": "function"
    },
    {
      "inputs": [
        {
          "internalType": "uint256",
          "name": "index",
          "type": "uint256"
        }
      ],
      "name": "getTransactionByIndex",
      "outputs": [
        {
          "components": [
            {
              "internalType": "address",
              "name": "sender",
              "type": "address"
            },
            {
              "internalType": "address",
              "name": "receiver",
              "type": "address"
            },
            {
              "internalType": "uint256",
              "name": "amount",
              "type": "uint256"
            },
            {
              "internalType": "string",
              "name": "message",
              "type": "string"
            },
            {
              "internalType": "uint256",
              "name": "timestamp",
              "type": "uint256"
            },
            {
              "internalType": "string",
              "name": "keyword",
              "type": "string"
            }
          ],
          "internalType": "struct Transactions.TransferStruct",
          "name": "",
          "type": "tuple"
        }
      ],
      "stateMutability": "view",
      "type": "function"
    },
    {
      "inputs": [],
      "name": "getTransactionCount",
      "outputs": [
        {
          "internalType": "uint256",
          "name": "",
          "type": "uint256"
        }
      ],
      "stateMutability": "view",
      "type": "function"
    },
    {
      "inputs": [
        {
          "internalType": "address",
          "name": "account",
          "type": "address"
        }
      ],
      "name": "getTransactionCountByAddress",
      "outputs": [
        {
          "internalType": "uint256",
          "name": "",
          "type": "uint256"
        }
      ],
      "stateMutability": "view",
      "type": "function"
    },
    {
      "inputs": [
        {
          "internalType": "string",
          "name": "keyword",
          "type": "string"
        }
      ],
      "name": "getTransactionsByKeyword",
      "outputs": [
        {
          "components": [
            {
              "internalType": "address",
              "name": "sender",
              "type": "address"
            },
            {
              "internalType": "address",
              "name": "receiver",
              "type": "address"
            },
            {
              "internalType": "uint256",
              "name": "amount",
              "type": "uint256"
            },
            {
              "internalType": "string",
              "name": "message",
              "type": "string"
            },
            {
              "internalType": "uint256",
              "name": "timestamp",
              "type": "uint256"
            },
            {
              "internalType": "string",
              "name": "keyword",
              "type": "string"
            }
          ],
          "internalType": "struct Transactions.TransferStruct[]",
          "name": "",
          "type": "tuple[]"
        }
      ],
      "stateMutability": "view",
      "type": "function"
    },
    {
      "inputs": [
        {
          "internalType": "address",
          "name": "receiver",
          "type": "address"
        }
      ],
      "name": "getTransactionsByReceiver",
      "outputs": [
        {
          "components": [
            {
              "internalType": "address",
              "name": "sender",
              "type": "address"
            },
            {
              "internalType": "address",
              "name": "receiver",
              "type": "address"
            },
            {
              "internalType": "uint256",
              "name": "amount",
              "type": "uint256"
            },
            {
              "internalType": "string",
              "name": "message",
              "type": "string"
            },
            {
              "internalType": "uint256",
              "name": "timestamp",
              "type": "uint256"
            },
            {
              "internalType": "string",
              "name": "keyword",
              "type": "string"
            }
          ],
          "internalType": "struct Transactions.TransferStruct[]",
          "name": "",
          "type": "tuple[]"
        }
      ],
      "stateMutability": "view",
      "type": "function"
    },
    {
      "inputs": [
        {
          "internalType": "address",
          "name": "sender",
          "type": "address"
        }
      ],
      "name": "getTransactionsBySender",
      "outputs": [
        {
          "components": [
            {
              "internalType": "address",
              "name": "sender",
              "type": "address"
            },
            {
              "internalType": "address",
              "name": "receiver",
              "type": "address"
            },
            {
              "internalType": "uint256",
              "name": "amount",
              "type": "uint256"
            },
            {
              "internalType": "string",
              "name": "message",
              "type": "string"
            },
            {
              "internalType": "uint256",
              "name": "timestamp",
              "type": "uint256"
            },
            {
              "internalType": "string",
              "name": "keyword",
              "type": "string"
            }
          ],
          "internalType": "struct Transactions.TransferStruct[]",
          "name": "",
          "type": "tuple[]"
        }
      ],
      "stateMutability": "view",
      "type": "function"
    }
  ],
  "bytecode": "0x608060405234801561001057600080fd5b50612207806100206000396000f3fe608060405234801561001057600080fd5b50600436106100885760003560e01c806333b210c01161005b57806333b210c014610129578063869152e714610159578063cc2d7ead14610189578063e4a4d04f146101a557610088565b80630d4ea0491461008d5780631b4e4738146100bd57806327506f53146100ed5780632e7700f01461010b575b600080fd5b6100a760048036038101906100a2919061163a565b6101d5565b6040516100b49190611871565b60405180910390f35b6100d760048036038101906100d291906119c8565b6105c3565b6040516100e49190611871565b60405180910390f35b6100f56109af565b6040516101029190611871565b60405180910390f35b610113610bf2565b6040516101209190611a20565b60405180910390f35b610143600480360381019061013e919061163a565b610bfb565b6040516101509190611871565b60405180910390f35b610173600480360381019061016e9190611a67565b610fe9565b6040516101809190611b24565b60405180910390f35b6101a3600480360381019061019e9190611b84565b611250565b005b6101bf60048036038101906101ba919061163a565b61142e565b6040516101cc9190611a20565b60405180910390f35b60606000805b600180549050811015610283578373ffffffffffffffffffffffffffffffffffffffff166001828154811061021357610212611c23565b5b906000526020600020906006020160010160009054906101000a900473ffffffffffffffffffffffffffffffffffffffff1673ffffffffffffffffffffffffffffffffffffffff16036102705760018261026d9190611c81565b91505b808061027b90611cb5565b9150506101db565b5060008167ffffffffffffffff8111156102a05761029f61189d565b5b6040519080825280602002602001820160405280156102d957816020015b6102c6611566565b8152602001906001900390816102be5790505b5090506000805b6001805490508110156105b7578573ffffffffffffffffffffffffffffffffffffffff166001828154811061031857610317611c23565b5b906000526020600020906006020160010160009054906101000a900473ffffffffffffffffffffffffffffffffffffffff1673ffffffffffffffffffffffffffffffffffffffff16036105a4576001818154811061037957610378611c23565b5b90600052602060002090600602016040518060c00160405290816000820160009054906101000a900473ffffffffffffffffffffffffffffffffffffffff1673ffffffffffffffffffffffffffffffffffffffff1673ffffffffffffffffffffffffffffffffffffffff1681526020016001820160009054906101000a900473ffffffffffffffffffffffffffffffffffffffff1673ffffffffffffffffffffffffffffffffffffffff1673ffffffffffffffffffffffffffffffffffffffff1681526020016002820154815260200160038201805461045890611d2c565b80601f016020809104026020016040519081016040528092919081815260200182805461048490611d2c565b80156104d15780601f106104a6576101008083540402835291602001916104d1565b820191906000526020600020905b8154815290600101906020018083116104b457829003601f168201915b50505050508152602001600482015481526020016005820180546104f490611d2c565b80601f016020809104026020016040519081016040528092919081815260200182805461052090611d2c565b801561056d5780601f106105425761010080835404028352916020019161056d565b820191906000526020600020905b81548152906001019060200180831161055057829003601f168201915b50505050508152505083838151811061058957610588611c23565b5b60200260200101819052506001826105a19190611c81565b91505b80806105af90611cb5565b9150506102e0565b50819350505050919050565b60606000805b60018054905081101561067057836040516020016105e79190611d99565b604051602081830303815290604052805190602001206001828154811061061157610610611c23565b5b90600052602060002090600602016005016040516020016106329190611e48565b604051602081830303815290604052805190602001200361065d5760018261065a9190611c81565b91505b808061066890611cb5565b9150506105c9565b5060008167ffffffffffffffff81111561068d5761068c61189d565b5b6040519080825280602002602001820160405280156106c657816020015b6106b3611566565b8152602001906001900390816106ab5790505b5090506000805b6001805490508110156109a357856040516020016106eb9190611d99565b604051602081830303815290604052805190602001206001828154811061071557610714611c23565b5b90600052602060002090600602016005016040516020016107369190611e48565b6040516020818303038152906040528051906020012003610990576001818154811061076557610764611c23565b5b90600052602060002090600602016040518060c00160405290816000820160009054906101000a900473ffffffffffffffffffffffffffffffffffffffff1673ffffffffffffffffffffffffffffffffffffffff1673ffffffffffffffffffffffffffffffffffffffff1681526020016001820160009054906101000a900473ffffffffffffffffffffffffffffffffffffffff1673ffffffffffffffffffffffffffffffffffffffff1673ffffffffffffffffffffffffffffffffffffffff1681526020016002820154815260200160038201805461084490611d2c565b80601f016020809104026020016040519081016040528092919081815260200182805461087090611d2c565b80156108bd5780601f10610892576101008083540402835291602001916108bd565b820191906000526020600020905b8154815290600101906020018083116108a057829003601f168201915b50505050508152602001600482015481526020016005820180546108e090611d2c565b80601f016020809104026020016040519081016040528092919081815260200182805461090c90611d2c565b80156109595780601f1061092e57610100808354040283529160200191610959565b820191906000526020600020905b81548152906001019060200180831161093c57829003601f168201915b50505050508152505083838151811061097557610974611c23565b5b602002602001018190525060018261098d9190611c81565b91505b808061099b90611cb5565b9150506106cd565b50819350505050919050565b60606001805480602002602001604051908101604052809291908181526020016000905b82821015610be957838290600052602060002090600602016040518060c00160405290816000820160009054906101000a900473ffffffffffffffffffffffffffffffffffffffff1673ffffffffffffffffffffffffffffffffffffffff1673ffffffffffffffffffffffffffffffffffffffff1681526020016001820160009054906101000a900473ffffffffffffffffffffffffffffffffffffffff1673ffffffffffffffffffffffffffffffffffffffff1673ffffffffffffffffffffffffffffffffffffffff16815260200160028201548152602001600382018054610abc90611d2c565b80601f0160208091040260200160405190810160405280929190818152602001828054610ae890611d2c565b8015610b355780601f10610b0a57610100808354040283529160200191610b35565b820191906000526020600020905b815481529060010190602001808311610b1857829003601f168201915b5050505050815260200160048201548152602001600582018054610b5890611d2c565b80601f0160208091040260200160405190810160405280929190818152602001828054610b8490611d2c565b8015610bd15780601f10610ba657610100808354040283529160200191610bd1565b820191906000526020600020905b815481529060010190602001808311610bb457829003601f168201915b505050505081525050815260200190600101906109d3565b50505050905090565b60008054905090565b60606000805b600180549050811015610ca9578373ffffffffffffffffffffffffffffffffffffffff1660018281548110610c3957610c38611c23565b5b906000526020600020906006020160000160009054906101000a900473ffffffffffffffffffffffffffffffffffffffff1673ffffffffffffffffffffffffffffffffffffffff1603610c9657600182610c939190611c81565b91505b8080610ca190611cb5565b915050610c01565b5060008167ffffffffffffffff811115610cc657610cc561189d565b5b604051908082528060200260200182016040528015610cff57816020015b610cec611566565b815260200190600190039081610ce45790505b5090506000805b600180549050811015610fdd578573ffffffffffffffffffffffffffffffffffffffff1660018281548110610d3e57610d3d611c23565b5b906000526020600020906006020160000160009054906101000a900473ffffffffffffffffffffffffffffffffffffffff1673ffffffffffffffffffffffffffffffffffffffff1603610fca5760018181548110610d9f57610d9e611c23565b5b90600052602060002090600602016040518060c00160405290816000820160009054906101000a900473ffffffffffffffffffffffffffffffffffffffff1673ffffffffffffffffffffffffffffffffffffffff1673ffffffffffffffffffffffffffffffffffffffff1681526020016001820160009054906101000a900473ffffffffffffffffffffffffffffffffffffffff1673ffffffffffffffffffffffffffffffffffffffff1673ffffffffffffffffffffffffffffffffffffffff16815260200160028201548152602001600382018054610e7e90611d2c565b80601f0160208091040260200160405190810160405280929190818152602001828054610eaa90611d2c565b8015610ef75780601f10610ecc57610100808354040283529160200191610ef7565b820191906000526020600020905b815481529060010190602001808311610eda57829003601f168201915b5050505050815260200160048201548152602001600582018054610f1a90611d2c565b80601f0160208091040260200160405190810160405280929190818152602001828054610f4690611d2c565b8015610f935780601f10610f6857610100808354040283529160200191610f93565b820191906000526020600020905b815481529060010190602001808311610f7657829003601f168201915b505050505081525050838381518110610faf57610fae611c23565b5b6020026020010181905250600182610fc79190611c81565b91505b8080610fd590611cb5565b915050610d06565b50819350505050919050565b610ff1611566565b6001805490508210611038576040517f08c379a000000000000000000000000000000000000000000000000000000000815260040161102f90611ebc565b60405180910390fd5b6001828154811061104c5761104b611c23565b5b90600052602060002090600602016040518060c00160405290816000820160009054906101000a900473ffffffffffffffffffffffffffffffffffffffff1673ffffffffffffffffffffffffffffffffffffffff1673ffffffffffffffffffffffffffffffffffffffff1681526020016001820160009054906101000a900473ffffffffffffffffffffffffffffffffffffffff1673ffffffffffffffffffffffffffffffffffffffff1673ffffffffffffffffffffffffffffffffffffffff1681526020016002820154815260200160038201805461112b90611d2c565b80601f016020809104026020016040519081016040528092919081815260200182805461115790611d2c565b80156111a45780601f10611179576101008083540402835291602001916111a4565b820191906000526020600020905b81548152906001019060200180831161118757829003601f168201915b50505050508152602001600482015481526020016005820180546111c790611d2c565b80601f01602080910402602001604051908101604052809291908181526020018280546111f390611d2c565b80156112405780601f1061121557610100808354040283529160200191611240565b820191906000526020600020905b81548152906001019060200180831161122357829003601f168201915b5050505050815250509050919050565b60016000808282546112629190611c81565b9250508190555060016040518060c001604052803373ffffffffffffffffffffffffffffffffffffffff1681526020018673ffffffffffffffffffffffffffffffffffffffff16815260200185815260200184815260200142815260200183815250908060018154018082558091505060019003906000526020600020906006020160009091909190915060008201518160000160006101000a81548173ffffffffffffffffffffffffffffffffffffffff021916908373ffffffffffffffffffffffffffffffffffffffff16021790555060208201518160010160006101000a81548173ffffffffffffffffffffffffffffffffffffffff021916908373ffffffffffffffffffffffffffffffffffffffff16021790555060408201518160020155606082015181600301908161139a9190612073565b506080820151816004015560a08201518160050190816113ba9190612073565b5050508373ffffffffffffffffffffffffffffffffffffffff163373ffffffffffffffffffffffffffffffffffffffff167f416cfa4330a4565f45c2fd2dd4826a83a37443aba2ce6f79477c7355afac35fa85854286604051611420949392919061217e565b60405180910390a350505050565b6000806000905060005b60018054905081101561155c578373ffffffffffffffffffffffffffffffffffffffff16600182815481106114705761146f611c23565b5b906000526020600020906006020160000160009054906101000a900473ffffffffffffffffffffffffffffffffffffffff1673ffffffffffffffffffffffffffffffffffffffff16148061153457508373ffffffffffffffffffffffffffffffffffffffff16600182815481106114ea576114e9611c23565b5b906000526020600020906006020160010160009054906101000a900473ffffffffffffffffffffffffffffffffffffffff1673ffffffffffffffffffffffffffffffffffffffff16145b15611549576001826115469190611c81565b91505b808061155490611cb5565b915050611438565b5080915050919050565b6040518060c00160405280600073ffffffffffffffffffffffffffffffffffffffff168152602001600073ffffffffffffffffffffffffffffffffffffffff168152602001600081526020016060815260200160008152602001606081525090565b6000604051905090565b600080fd5b600080fd5b600073ffffffffffffffffffffffffffffffffffffffff82169050919050565b6000611607826115dc565b9050919050565b611617816115fc565b811461162257600080fd5b50565b6000813590506116348161160e565b92915050565b6000602082840312156116505761164f6115d2565b5b600061165e84828501611625565b91505092915050565b600081519050919050565b600082825260208201905092915050565b6000819050602082019050919050565b61169c816115fc565b82525050565b6000819050919050565b6116b5816116a2565b82525050565b600081519050919050565b600082825260208201905092915050565b60005b838110156116f55780820151818401526020810190506116da565b60008484015250505050565b6000601f19601f8301169050919050565b600061171d826116bb565b61172781856116c6565b93506117378185602086016116d7565b61174081611701565b840191505092915050565b600060c0830160008301516117636000860182611693565b5060208301516117766020860182611693565b50604083015161178960408601826116ac565b50606083015184820360608601526117a18282611712565b91505060808301516117b660808601826116ac565b5060a083015184820360a08601526117ce8282611712565b9150508091505092915050565b60006117e7838361174b565b905092915050565b6000602082019050919050565b600061180782611667565b6118118185611672565b93508360208202850161182385611683565b8060005b8581101561185f578484038952815161184085826117db565b945061184b836117ef565b925060208a01995050600181019050611827565b50829750879550505050505092915050565b6000602082019050818103600083015261188b81846117fc565b905092915050565b600080fd5b600080fd5b7f4e487b7100000000000000000000000000000000000000000000000000000000600052604160045260246000fd5b6118d582611701565b810181811067ffffffffffffffff821117156118f4576118f361189d565b5b80604052505050565b60006119076115c8565b905061191382826118cc565b919050565b600067ffffffffffffffff8211156119335761193261189d565b5b61193c82611701565b9050602081019050919050565b82818337600083830152505050565b600061196b61196684611918565b6118fd565b90508281526020810184848401111561198757611986611898565b5b611992848285611949565b509392505050565b600082601f8301126119af576119ae611893565b5b81356119bf848260208601611958565b91505092915050565b6000602082840312156119de576119dd6115d2565b5b600082013567ffffffffffffffff8111156119fc576119fb6115d7565b5b611a088482850161199a565b91505092915050565b611a1a816116a2565b82525050565b6000602082019050611a356000830184611a11565b92915050565b611a44816116a2565b8114611a4f57600080fd5b50565b600081359050611a6181611a3b565b92915050565b600060208284031215611a7d57611a7c6115d2565b5b6000611a8b84828501611a52565b91505092915050565b600060c083016000830151611aac6000860182611693565b506020830151611abf6020860182611693565b506040830151611ad260408601826116ac565b5060608301518482036060860152611aea8282611712565b9150506080830151611aff60808601826116ac565b5060a083015184820360a0860152611b178282611712565b9150508091505092915050565b60006020820190508181036000830152611b3e8184611a94565b905092915050565b6000611b51826115dc565b9050919050565b611b6181611b46565b8114611b6c57600080fd5b50565b600081359050611b7e81611b58565b92915050565b60008060008060808587031215611b9e57611b9d6115d2565b5b6000611bac87828801611b6f565b9450506020611bbd87828801611a52565b935050604085013567ffffffffffffffff811115611bde57611bdd6115d7565b5b611bea8782880161199a565b925050606085013567ffffffffffffffff811115611c0b57611c0a6115d7565b5b611c178782880161199a565b91505092959194509250565b7f4e487b7100000000000000000000000000000000000000000000000000000000600052603260045260246000fd5b7f4e487b7100000000000000000000000000000000000000000000000000000000600052601160045260246000fd5b6000611c8c826116a2565b9150611c97836116a2565b9250828201905080821115611caf57611cae611c52565b5b92915050565b6000611cc0826116a2565b91507fffffffffffffffffffffffffffffffffffffffffffffffffffffffffffffffff8203611cf257611cf1611c52565b5b600182019050919050565b7f4e487b7100000000000000000000000000000000000000000000000000000000600052602260045260246000fd5b60006002820490506001821680611d4457607f821691505b602082108103611d5757611d56611cfd565b5b50919050565b600081905092915050565b6000611d73826116bb565b611d7d8185611d5d565b9350611d8d8185602086016116d7565b80840191505092915050565b6000611da58284611d68565b915081905092915050565b60008190508160005260206000209050919050565b60008154611dd281611d2c565b611ddc8186611d5d565b94506001821660008114611df75760018114611e0c57611e3f565b60ff1983168652811515820286019350611e3f565b611e1585611db0565b60005b83811015611e3757815481890152600182019150602081019050611e18565b838801955050505b50505092915050565b6000611e548284611dc5565b915081905092915050565b600082825260208201905092915050565b7f496e646578206f7574206f6620626f756e647300000000000000000000000000600082015250565b6000611ea6601383611e5f565b9150611eb182611e70565b602082019050919050565b60006020820190508181036000830152611ed581611e99565b9050919050565b60006020601f8301049050919050565b600082821b905092915050565b600060088302611f297fffffffffffffffffffffffffffffffffffffffffffffffffffffffffffffffff82611eec565b611f338683611eec565b95508019841693508086168417925050509392505050565b6000819050919050565b6000611f70611f6b611f66846116a2565b611f4b565b6116a2565b9050919050565b6000819050919050565b611f8a83611f55565b611f9e611f9682611f77565b848454611ef9565b825550505050565b600090565b611fb3611fa6565b611fbe818484611f81565b505050565b5b81811015611fe257611fd7600082611fab565b600181019050611fc4565b5050565b601f82111561202757611ff881611db0565b61200184611edc565b81016020851015612010578190505b61202461201c85611edc565b830182611fc3565b50505b505050565b600082821c905092915050565b600061204a6000198460080261202c565b1980831691505092915050565b60006120638383612039565b9150826002028217905092915050565b61207c826116bb565b67ffffffffffffffff8111156120955761209461189d565b5b61209f8254611d2c565b6120aa828285611fe6565b600060209050601f8311600181146120dd57600084156120cb578287015190505b6120d58582612057565b86555061213d565b601f1984166120eb86611db0565b60005b82811015612113578489015182556001820191506020850194506020810190506120ee565b86831015612130578489015161212c601f891682612039565b8355505b6001600288020188555050505b505050505050565b6000612150826116bb565b61215a8185611e5f565b935061216a8185602086016116d7565b61217381611701565b840191505092915050565b60006080820190506121936000830187611a11565b81810360208301526121a58186612145565b90506121b46040830185611a11565b81810360608301526121c68184612145565b90509594505050505056fea2646970667358221220b7c71f67f27b43f78bc99761dbf6eaa21f8f6f7a77231aa8b7f26e5c8a35c46f64736f6c63430008140033",
  "linkReferences": {},
  "deployedLinkReferences": {}
}